:040000008A11F72F3B
:10000600831203131F15080000308A1560268A1113
:100016001A30F500F830F400F40B0F28F50B0F2812
:10002600000003308A1548268A110730F5007D3016
:10003600F400F40B1C28F50B1C2803308A154826FF
:100046008A110F30F5004730F400F40B2828F50B21
:1000560028282D2803308A1548268A1102308A1549
:1000660048268A1102308A1548268A1108308A15D0
:1000760048268A1100308A1548268A110C308A15BE
:1000860048268A1100308A1548268A1106308A15B4
:1000960048260800F21F74280030F6000030F700EA
:1000A6008030F8007009F9007109FA007209FB0046
:1000B600F90A0319FA0A0319FB0A7908F6077A08F6
:1000C60003187A0F67286828F7077B0803187B0F41
:1000D6006D286E28F8077608F0007708F100780892
:1000E600F200F51F9B280030F6000030F700803044
:1000F600F8007309F9007409FA007509FB00F90A9A
:100106000319FA0A0319FB0A7908F6077A0803188D
:100116007A0F8E288F28F7077B0803187B0F942801
:100126009528F8077608F3007708F4007808F500B4
:100136008030F2068030F50675087202031D08004D
:1001460074087102031D080073087002080000306D
:10015600FC000030FB000030FA000030F9007308A4
:100166007204710470040319FF28FD01FD0AF31BD4
:10017600CA280130F8000310F00DF10DF20DF30D51
:10018600F80BBE280130F8007808FD07BA280130C0
:10019600F8000310F90DFA0DFB0DFC0DF80BCC2839
:1001A60073087702031DE12872087602031DE12811
:1001B60071087502031DE12870087402031CF228F9
:1001C6007008F4027108031C710FF5027208031C13
:1001D600720FF6027308031C730FF70279140130CD
:1001E6000310F30CF20CF10CF00CFF3E031DF32888
:1001F6000130FD02031DCA287C08F3007B08F200CB
:100206007A08F1007908F00008007308031910292C
:10021600720871047004031D23290030F0000030B9
:10022600F1000030F20008000130F5007508F30710
:1002360001300310F20CF10CF00CFF3E031D1C29DB
:10024600FE30720503193E2917290130F50075089D
:10025600F3070130F007003003180130F1070030D2
:1002660003180130F20701300310F20CF10CF00C08
:10027600FF3E031D3729FF30720503194D29282932
:100286000130F30201300310F00DF10DF20DFF3EC7
:10029600031D4629F11F432973185729FF30F0051E
:1002A6007F30F105FF30F2050310F30C7308F500FB
:1002B600F601F70110300310F50DF60DF70DFF3EB0
:1002C600031D5E297508F0047608F1047708F20428
:1002D600740803190800F217080083120313300884
:1002E600B4003108B5003208B6000310350D360DDE
:1002F600B7003708BD00BD08031D8A290030B300CA
:100306000030B2000030B1000030B0000800300804
:10031600B4003108B5003208B60017300310B60C29
:10032600B50CB40CFF3E031D91293408B7003708FD
:10033600B800B117FF30B005FF30B1050030B20587
:100346003008B9003108BA003208BB00BC018E3053
:10035600BD02BD1FCC293D08803A8F3E0318BC293B
:100366000030B3000030B2000030B1000030B00001
:10037600080001300310BC0CBB0CBA0CB90CFF3ED4
:10038600031DBD290130B4003408BD070319E72950
:10039600BC2918303D02031CE4290030B3000030AC
:1003A600B2000030B1000030B00008000130B400E7
:1003B6000310B90DBA0DBB0DBC0DB40BDB29013012
:1003C600BD02BD08031DD92938080319F529B90945
:1003D600BA09BB09BC09B90A0319BA0A0319BB0A47
:1003E6000319BC0A3C08B3003B08B2003A08B10046
:1003F6003908B0000800A03083120313C80048086B
:10040600D1004408F0004508F1004608F20000302B
:10041600F3000030F4000030F5008A114D208A11F7
:100426000318332A2D3083120313C80051088400A1
:100436004808831380000130C8004808D1074408E3
:10044600F0004508F1004608F2008A150A268A11CE
:10045600700883120313C4007108C5007208C60031
:10046600831203134408B0004508B1004608B200E1
:100476008A1170218A11831203133308D0003208BF
:10048600CF003108CE003008CD005008FB004F08E1
:10049600FA004E08F9004D08F8008A1510278A114F
:1004A600780883120313A7007908A8007A08A90020
:1004B6004408AA004508AB004608AC008A157A260F
:1004C6008A11831203132708C4002808C5002908C7
:1004D600C6004408A3004508A4004608A500243029
:1004E600A0007430A1004930A2008A1111248A119B
:1004F600831203132008B0002108B1002208B200BD
:100506008A1170218A11831203133308CC00320832
:10051600CB003108CA003008C9002930C800480895
:10052600AA005008AE004F08AD004E08AC004D08BA
:10053600AB004C08B2004B08B1004A08B0004908AD
:10054600AF0051088A11E925A030080070308316E3
:1005560003138F04831203138501831603130514F3
:100566008514051585150516851605178517831235
:1005760003138601831603130610861006118611CF
:1005860006128612061386138A1534268A118A11D4
:1005960007208A118A1103208A118A151A268A11C0
:1005A600710870040319D02A8A1595268A117108D4
:1005B60083120313DF01DF077008DE01DE07003058
:1005C600D2000030D3000030D4000030D500A03077
:1005D600D6004030D7000030A7008030A800443055
:1005E600A9005508F8005608F9005708FA005208FD
:1005F600F0005308F1005408F2008A150A268A1101
:100606007008FB007108FC007208FD008A11E324E3
:100616008A11780883120313AA007908AB007A08B6
:10062600AC008A115A238A11831203132708D800B3
:100636002808D9002908DA005808A0005908A1009E
:100646005A08A2005F08F901F9075E08F801F807E1
:100656008A15CD268A11780883120313A300790818
:10066600A4007A08A5008A1111248A1183120313A3
:100676002008DB002108DC002208DD008A1502269E
:100686008A11F401F40A01308A156D278A11831242
:1006960003135B08C4005C08C5005D08C600C701FB
:1006A6008A11FE218A118A15B0268A11CD2A831253
:1006B60003132A08AD002B08AE002C08AF00031068
:1006C6002E0D2F0DB0003008B500B508031D722B96
:1006D6000030A7000030A8000030A9000800270855
:1006E600AD002808AE002908AF0003102E0D2F0D0F
:1006F600B0003008B600B608031D882B0030A700EE
:100706000030A8000030A90008000030B200003018
:10071600B3000030B40089303607AD002D08B502AD
:100726002A08AD002B08AE002C08AF0010300310CD
:10073600AF0CAE0CAD0CFF3E031D9A2B2D08B0007E
:100746003008B6002708AD002808AE002908AF001B
:1007560010300310AF0CAE0CAD0CFF3E031DAC2BDE
:100766002D08B0003008B6068030AD002D08B6055D
:10077600AB17FF30AA05FF30AB050030AC05A81754
:10078600FF30A705FF30A8050030A9051830AD00D9
:100796002D08B10001300310B20DB30DB40DFF3EAC
:1007A600031DCE2B29082C02031DDF2B28082B0244
:1007B600031DDF2B27082A02031CEC2B2708AA029D
:1007C6002808031C280FAB022908031C290AAC02BF
:1007D600321401300310AA0DAB0DAC0DFF3E031D04
:1007E600ED2B0130B102031DCD2B3208F00033088A
:1007F600F1003408F2003508AD002D08F300360884
:10080600AE002E08F4008A11082170088312031323
:10081600A7007108A8007208A90008008312031334
:100826002008A6002108A7002208A8000310270D0B
:10083600280DA9002908AA00AA08031D292C0030A2
:10084600A0000030A1000030A20008002308A60086
:100856002408A7002508A8000310270D280DA900C5
:100866002908AF00AF08031D3F2C0030A000003060
:10087600A1000030A20008002F087B3EA600260833
:10088600AA072008A6002108A7002208A800103001
:100896000310A80CA70CA60CFF3E031D4B2C260824
:1008A600A9002908AF002308A6002408A7002508E8
:1008B600A80010300310A80CA70CA60CFF3E031DC1
:1008C6005D2C2608A9002908AF068030A600260858
:1008D600AF05A117A417FF30A305FF30A40500300C
:1008E600A5050030AB000030AC000030AD0007308D
:1008F600A6002608AE00201C8E2C2308AB07240871
:1009060003110318240A031DAC0725080311031855
:10091600250A031DAD0701300310A20CA10CA00C83
:10092600FF3E031D8F2C01300310A30DA40DA50D52
:10093600FF3E031D972C0130AE02031D7E2C0930AD
:10094600A6002608AE00201CB62C2308AB072408F8
:1009560003110318240A031DAC0725080311031805
:10096600250A031DAD0701300310A20CA10CA00C33
:10097600FF3E031DB72C01300310AD0CAC0CAB0CC5
:10098600FF3E031DBF2C0130AE02031DA62C2B0813
:10099600F0002C08F1002D08F2002A08A60026080F
:1009A600F3002F08A7002708F4008A110821700811
:1009B60083120313A0007108A1007208A2000800A8
:1009C600780883120313A0007908A1007A08A20010
:1009D6000310210D220DA3002308A6007B08A0000A
:1009E6007C08A1007D08A2000310210D220DA300A2
:1009F6002308A500260803190C2D2508260203182E
:100A0600132D2603FF3A2507A00019302002031CE8
:100A1600132D7B08F8007C08F9007D08FA00080011
:100A2600250803190800260825020318222D250388
:100A3600FF3A2607A00019302002031808000630E6
:100A4600A0002008A400FA1BA417FD1B2417F91701
:100A5600FF30F805FF30F9050030FA05FC17FF30C6
:100A6600FB05FF30FC050030FD05250826020318AE
:100A7600622D01300310FB0DFC0DFD0DFF3E031D25
:100A86003D2D0130A5022508260603195D2D0130EE
:100A9600A4022408073903195D2D3C2D01300310EB
:100AA600FA0CF90CF80CFF3E031D522D0130A00084
:100AB6002008A6072608250603198B2D512D260882
:100AC600250203188B2D01300310F80DF90DFA0DD0
:100AD600FF3E031D672D0130A602250826060319D1
:100AE600872D0130A402240807390319872D662DA6
:100AF60001300310FD0CFC0CFB0CFF3E031D7C2D8E
:100B06000130A0002008A50726082506031D7B2D19
:100B1600A41F9D2DFF30F806FF30F906FF30FA06B8
:100B26000130F807003003180130F90700300318C8
:100B36000130FA07241FAF2DFF30FB06FF30FC06FD
:100B4600FF30FD060130FB07003003180130FC07BB
:100B5600003003180130FD07A4017808FB07790867
:100B660003110318790A031DFC077A0803110318F9
:100B76007A0A031DFD07FD1FD22DFF30FB06FF304D
:100B8600FC06FF30FD060130FB070030031801307C
:100B9600FC07003003180130FD07A401A40A7B08F6
:100BA600F0007C08F1007D08F2002608A00020086D
:100BB600F3002408A1002108F4008A110821700816
:100BC600F8007108F9007208FA000800831203138E
:100BD600BE002B30B3003308B9000130AA07FF303E
:100BE6002A0784008A1500208A11B3003308C3003F
:100BF600C3080319F22F4308253A03190E2E43089A
:100C0600B3003E0884003308831380000130B3002C
:100C16003308BE07F02DBF01C001B8012A088400C1
:100C26008A1500208A118A1526268A11031C552E3C
:100C360083120313BF01C0010A30F0000030F10037
:100C4600831203134008F301F3073F08F201F2078A
:100C56008A15ED268A11710883120313C001C00795
:100C66007008BF01BF072A0884008A1500208A1170
:100C7600D03EB300FF3003180030B4003308BF077E
:100C86000318C00A3408C0070130B3003308AA07A6
:100C96002A0884008A1500208A118A1526268A11B8
:100CA60003181F2E831203132A0884008A150020B6
:100CB6008A112E3A031D992E0130B3003308AA0774
:100CC600C101C2012A0884008A1500208A118A15EA
:100CD60026268A11031CA52E831203134208F1014E
:100CE600F1074108F001F0070A30F2000030F30086
:100CF6008A15ED268A11831203132A0884008A15A1
:100D060000208A117007B300003003180130710704
:100D1600B4003308D03EC10034080318013EFF3E3C
:100D2600C2000130B3003308AA07652E83120313ED
:100D3600C101C201A52E3816A52EC030B300330856
:100D4600B804BA2E013083120313AA07FF302A070C
:100D560084008A1500208A11C300003A0319F22F75
:100D66006C3A03199E2E193A0319A02EF02D381E3F
:100D7600CC2E3908840083130008BA00840A0008C0
:100D8600BB00840A0008BC00840A0008BD000430C9
:100D9600DB2E3908840083130008B300840A000898
:100DA600B4003308BA003408BB00BC01BD010230F0
:100DB600B3003308B90742084104031DEE2E3D086F
:100DC6003C043B043A04031DEE2E0130C107031810
:100DD600C20A0030C207C301C30A43080A3A03190C
:100DE600282F4308B30001300310B30DFF3E031D47
:100DF600F72E0310330D013E84008A1500208A1158
:100E0600B4008A1500208A11B5008A1500208A11BF
:100E1600B6008A1500208A11B70037083D02031D67
:100E26001E2F36083C02031D1E2F35083B02031DEC
:100E36001E2F34083A02031C282F0130B300330852
:100E4600C30743080A3A031DF42E4308B300B4014E
:100E5600B31BB4033408803AB5004208803A350221
:100E6600031D372F410833020318402F8312031343
:100E76004108B3003308C3005A2F831203134308F3
:100E8600B300B401B31BB4034208803AB50034087A
:100E9600803A3502031D512F3308410203185A2F99
:100EA600831203134308C100C201C11BC20383128C
:100EB60003134308B300B401B31BB4033408803AE8
:100EC600B5004008803A3502031D6B2F3F083302F8
:100ED60003187B2F831203134308B300B401B31B1B
:100EE600B4033308BF023408031CC003C0027F2FBB
:100EF60083120313BF01C00140083F040319E32F07
:100F06002030B3003E08840033088313800001308C
:100F1600B3003308BE07FF30BF070318C00AFF300F
:100F2600C0077F2F0030A3000030A2000030A100D0
:100F36000A30A0004108B30001300310B30DFF3E94
:100F4600031DA02F0310330D013E84008A150020D7
:100F56008A11F0008A1500208A11F1008A150020F6
:100F66008A11F2008A1500208A11F3003D08F70065
:100F76003C08F6003B08F5003A08F4008A11AA205E
:100F86008A11730883120313A7007208A60071085A
:100F9600A5007008A4008A15B2278A1183120313CC
:100FA6002008303EB4003408C3004308B3003E08AE
:100FB60084003308831380000130B3003308BE0772
:100FC600FF30C1070318C20AFF30C207FF304206CE
:100FD600031DEF2FFF3041060319F02D952F3E0814
:100FE60084008313800108008313A0308400B1308D
:100FF6008A15122683018A11A92A08308A00040854
:10100600840A8207003401340034003400340A3480
:101016000034003400346434003400340034E834DE
:101026000334003400341034273400340034A03440
:10103600863401340034403442340F340034803472
:101046009634983400340034E134F53405340034F1
:10105600CA349A343B3425346C3475342E342534F2
:0C10660036342E3436346C3475340034CB
:101C040000308A1548268A1501308A1548260800AE
:101C1400720871047004031908008030F206080089
:101C240064008001840A0406031900340406132E98
:101C3400831203131F19232E0130F0000030F1002A
:101C44000800F001F1010800F100F0013A307102DE
:101C54000318322E30307102031C322EF001F00AC8
:101C6400700C08000830831603139B009F019F1714
:101C7400831203139F151F169F121F139F131F1404
:101C84000630F000F00B442E00000800F30083122D
:101C94000313061373088A1560268A158312031327
:101CA40086170630F2003030F100F10B572EF20B9C
:101CB400572E00008312031386130800F000701CD3
:101CC400672E8312031306156A2E8312031306115B
:101CD400F01C6E2E86156F2E8611701D732E06163F
:101CE400742E0612F01D782E86160800861208003F
:101CF400803083120313A9062A08F8002B08F90080
:101D04002C08FA002708FB002808FC002908FD001D
:101D14008A11E324780883120313A7007908A80022
:101D24007A08A9000800831603131E08F20072083B
:101D3400F300831203131E08F2007208F4001E0855
:101D4400F601F607831603131E08F501F507760856
:101D5400F101F1077508F001F0070800F800F60139
:101D6400F70176087807F500750884008313800866
:101D74000319080076087807F500750884008313B2
:101D840000088A153A278A150130F6070318F70A5E
:101D94000030F707B32EFD01F91FD72EF809F90912
:101DA400F80A0319F90AFD01FD0A7808F000790818
:101DB400F100F2018E30FB007B08F3007D08FC008B
:101DC4007C08F4008A1108217008F8007108F900F1
:101DD4007208FA000800F401F501701CF72E72086D
:101DE400F4070318F50A7308F50701300310F20D20
:101DF400F30DFF3E031DF82E01300310F10CF00C1F
:101E0400FF3E031DFF2E71087004031DEF2E75089D
:101E1400F101F1077408F001F00708008E30FC00AE
:101E24007C08FD00FF307B050319262F01300310C9
:101E3400FB0CFA0CF90CF80CFF3E031D192F0130B2
:101E4400FC007C08FD07142F7808F0007908F100E5
:101E54007A08F2007D08FC007C08F300F4018A1182
:101E640008217008F8007108F9007208FA000800E7
:101E7400F40074080F39F1007108F2007408F039A5
:101E8400F1007108F3008312031306177308F100BD
:101E940004300310F10CFF3E031D4B2F71088A150B
:101EA40060268A158312031386170D30F100F10B97
:101EB400592F83120313861372088A1560268A1514
:101EC4008312031386170D30F100F10B672F831271
:101ED400031386130800F7007708013A031D902FB7
:101EE40074087F3EF5007508FA007A08F50004309E
:101EF4000310F50CFF3E031D7A2F7508F6007608D3
:101F0400F8007A080F39F5007508F90078088A1581
:101F140048268A1579088A15482608007708023A5F
:101F2400031D08007408BF3EF5007508FA007A081E
:101F3400F50004300310F50CFF3E031D9C2F7508BB
:101F4400F6007608F8007A080F39F5007508F900EC
:101F540078088A1548268A1579088A1548260800BB
:101F64008312031323082204210420040319F72FE6
:101F7400A901A90AA31BCC2F0130A8000310A00DAE
:101F8400A10DA20DA30DA80BC02F0130A800280895
:101F9400A907BC2F23082702031DDA2F22082602D3
:101FA400031DDA2F21082502031DDA2F200824023D
:101FB400031CEA2F2008A4022108031C210FA502F8
:101FC4002208031C220FA6022308031C230FA702C6
:101FD40001300310A30CA20CA10CA00CFF3E031DA6
:101FE400EB2F0130A902031DCC2F2708A3002608DC
:0C1FF400A2002508A1002408A00008009D
:04400E0061FFFCFF53
:00000001FF
