:100000008A11F72F00308A000408840A820700341E
:10001000003400340134003401340034013400343D
:10002000013400340134003401340034003400342D
:10003000003400340034003400340034013400341F
:10004000013400340034003401340034003400340E
:1000500001340034013400340034003401340034FD
:1000600001340034013400340034003400340034EE
:1000700001340034013400340134003401340034DC
:1000800001340034013400340034003400340034CE
:1000900001340034013400340034003401340034BD
:1000A00001340034003400340134003401340034AD
:1000B000003400340134003401340034013400349D
:1000C000013400340134003401340034003400348D
:1000D000013400340034003400340034003400347F
:1000E000003400340134003401340034013400346D
:1000F000013400340134003401340034013400345C
:10010000013400340134003401340034013400344B
:10011000013400340034003401340034013400343C
:10012000013400340134003401340034003400342C
:100130000A340034003400346434003400340034B1
:10014000E8340334003400341034273400340034ED
:10015000A034863401340034403442340F34003447
:1001600080349634983400340034E134F534053466
:100170000034CA349A343B3425346C3475342E340C
:0E018000253436342E3436346C347534003465
:1001900064008001840A0406031900340406C92897
:1001A000831203133008B4003108B5003208B600DA
:1001B0000310350D360DB7003708BD00BD08031D0F
:1001C000EA280030B3000030B2000030B100003047
:1001D000B00008003008B4003108B5003208B6009D
:1001E00017300310B60CB50CB40CFF3E031DF128FC
:1001F0003408B7003708B800B117FF30B005FF303A
:10020000B1050030B2053008B9003108BA00320833
:10021000BB00BC018E30BD02BD1F2C293D08803AB9
:100220008F3E03181C290030B3000030B2000030AC
:10023000B1000030B000080001300310BC0CBB0C52
:10024000BA0CB90CFF3E031D1D290130B40034085F
:10025000BD07031947291C2918303D02031C4429F6
:100260000030B3000030B2000030B1000030B00008
:1002700008000130B4000310B90DBA0DBB0DBC0D60
:10028000B40B3B290130BD02BD08031D39293808D4
:1002900003195529B909BA09BB09BC09B90A0319D7
:1002A000BA0A0319BB0A0319BC0A3C08B3003B088D
:1002B000B2003A08B1003908B000080083120313F5
:1002C000DB00D901DA015308D801D8075208D70159
:1002D000D707DC01DD015D08803AD4005808803A78
:1002E0005402031D752957085C0203180800831285
:1002F00003135C085B07D4005408840083130008D0
:10030000D5005508D6005C085B07D400540884006B
:1003100000082E3A0319F7295A085904031DC52964
:100320000130D9070318DA0A0030DA078A15572492
:100330008A1183120313051205155C085B07D400AC
:1003400054088400831300088A15DD268A1183125D
:1003500003135C08013E5B07D40054088400831338
:1003600000082E3A031DBB2986160130D707031853
:10037000D80A0030D8071430D5007930D400D40B17
:10038000BF29D50BBF29C429F729013083120313D4
:1003900059065A04031DF7290130D9070318DA0A50
:1003A0000030DA078A1557248A11831203130511C6
:1003B00005165C085B07D40054088400831300080A
:1003C0008A15DD268A11831203135C08013E5B0740
:1003D000D40054088400831300082E3A031DF72923
:1003E00086160130D7070318D80A0030D807013025
:1003F00083120313DC070318DD0A0030DD076B29C5
:10040000A03083120313C8004808D1004408F0004C
:100410004508F1004608F2000030F3000030F40017
:100420000030F5008A15BA258A110318352A2D30B7
:1004300083120313C8005108840048088313800006
:100440000130C8004808D1074408F0004508F10011
:100450004608F2008A154F248A117008831203138C
:10046000C4007108C5007208C60083120313440853
:10047000B0004508B1004608B2008A11D0208A11A8
:10048000831203133308D0003208CF003108CE00A6
:100490003008CD005008FB004F08FA004E08F90064
:1004A0004D08F8008A1509258A117808831203136C
:1004B000A7007908A8007A08A9004408AA004508FE
:1004C000AB004608AC008A1590248A1183120313EE
:1004D0002708C4002808C5002908C6004408A3004E
:1004E0004508A4004608A5002430A0007430A100EF
:1004F0004930A2008A1111248A11831203132008A3
:10050000B0002108B1002208B2008A11D0208A115F
:10051000831203133308CC003208CB003108CA0021
:100520003008C900B530C8004808AA005008AE001D
:100530004F08AD004E08AC004D08AB004C08B200AF
:100540004B08B1004A08B0004908AF0051088A11B1
:10055000E925A03008007030831603138F0483123E
:1005600003138501831603130510851005118515E6
:100570000512851605178517831203138601831646
:1005800003130610861006118611061286128A15AC
:100590007C248A118312031305148514061486140F
:1005A00006158615061686168A154B248A118A1595
:1005B00062248A11710870040319D72A8A15AB24A2
:1005C0008A11710883120313EB01EB077008EA012B
:1005D000EA070030DE000030DF000030E0000030CD
:1005E000E100A030E2004030E3000030A70080309E
:1005F000A8004430A9006108F8006208F900630807
:10060000FA005E08F0005F08F1006008F2008A1549
:100610004F248A117008FB007108FC007208FD006D
:100620008A11E3248A11780883120313AA00790837
:10063000AB007A08AC008A115A238A118312031383
:100640002708E4002808E5002908E6006408A0005F
:100650006508A1006608A2006B08F901F9076A089D
:10066000F801F8078A15C6248A1178088312031343
:10067000A3007908A4007A08A5008A1111248A1120
:10068000831203132008E7002108E8002208E9008C
:100690000230D2000030D3006708C4006808C500EB
:1006A0006908C600C7018A1100228A118A115E21D9
:1006B0008A11D42A831203132A08AD002B08AE0036
:1006C0002C08AF0003102E0D2F0DB0003008B50020
:1006D000B508031D722B0030A7000030A8000030C1
:1006E000A90008002708AD002808AE002908AF00BF
:1006F00003102E0D2F0DB0003008B600B608031DF4
:10070000882B0030A7000030A8000030A9000800A6
:100710000030B2000030B3000030B400893036073A
:10072000AD002D08B5022A08AD002B08AE002C083C
:10073000AF0010300310AF0CAE0CAD0CFF3E031D2C
:100740009A2B2D08B0003008B6002708AD00280805
:10075000AE002908AF0010300310AF0CAE0CAD0C8A
:10076000FF3E031DAC2B2D08B0003008B6068030CC
:10077000AD002D08B605AB17FF30AA05FF30AB055D
:100780000030AC05A817FF30A705FF30A8050030E2
:10079000A9051830AD002D08B10001300310B20DCD
:1007A000B30DB40DFF3E031DCE2B29082C02031DF3
:1007B000DF2B28082B02031DDF2B27082A02031C2E
:1007C000EC2B2708AA022808031C280FAB022908D3
:1007D000031C290AAC02321401300310AA0DAB0D20
:1007E000AC0DFF3E031DED2B0130B102031DCD2BDF
:1007F0003208F0003308F1003408F2003508AD008B
:100800002D08F3003608AE002E08F4008A15752670
:10081000700883120313A7007108A8007208A900CA
:100820000800831203132008A6002108A70022084D
:10083000A8000310270D280DA9002908AA00AA085E
:10084000031D292C0030A0000030A1000030A200C0
:1008500008002308A6002408A7002508A800031004
:10086000270D280DA9002908AF00AF08031D3F2C54
:100870000030A0000030A1000030A20008002F08C6
:100880007B3EA6002608AA072008A6002108A7008C
:100890002208A80010300310A80CA70CA60CFF3EDD
:1008A000031D4B2C2608A9002908AF002308A60029
:1008B0002408A7002508A80010300310A80CA70CD6
:1008C000A60CFF3E031D5D2C2608A9002908AF06D3
:1008D0008030A6002608AF05A117A417FF30A30596
:1008E000FF30A4050030A5050030AB000030AC009F
:1008F0000030AD000730A6002608AE00201C8E2C6C
:100900002308AB07240803110318240A031DAC07AE
:10091000250803110318250A031DAD070130031034
:10092000A20CA10CA00CFF3E031D8F2C0130031064
:10093000A30DA40DA50DFF3E031D972C0130AE02A3
:10094000031D7E2C0930A6002608AE00201CB62C04
:100950002308AB07240803110318240A031DAC075E
:10096000250803110318250A031DAD0701300310E4
:10097000A20CA10CA00CFF3E031DB72C01300310EC
:10098000AD0CAC0CAB0CFF3E031DBF2C0130AE0216
:10099000031DA62C2B08F0002C08F1002D08F200F6
:1009A0002A08A6002608F3002F08A7002708F4004D
:1009B0008A157526700883120313A0007108A10020
:1009C0007208A2000800780883120313A0007908B7
:1009D000A1007A08A2000310210D220DA300230814
:1009E000A6007B08A0007C08A1007D08A2000310DF
:1009F000210D220DA3002308A500260803190C2DA4
:100A0000250826020318132D2603FF3A2507A00008
:100A100019302002031C132D7B08F8007C08F90014
:100A20007D08FA0008002508031908002608250299
:100A30000318222D2503FF3A2607A00019302002B3
:100A4000031808000630A0002008A400FA1BA41711
:100A5000FD1B2417F917FF30F805FF30F9050030AA
:100A6000FA05FC17FF30FB05FF30FC050030FD05E3
:100A7000250826020318622D01300310FB0DFC0D22
:100A8000FD0DFF3E031D3D2D0130A5022508260664
:100A900003195D2D0130A4022408073903195D2DC7
:100AA0003C2D01300310FA0CF90CF80CFF3E031D2D
:100AB000522D0130A0002008A6072608250603199C
:100AC0008B2D512D2608250203188B2D0130031084
:100AD000F80DF90DFA0DFF3E031D672D0130A6023A
:100AE000250826060319872D0130A402240807399A
:100AF0000319872D662D01300310FD0CFC0CFB0C37
:100B0000FF3E031D7C2D0130A0002008A50726080C
:100B10002506031D7B2DA41F9D2DFF30F806FF30F9
:100B2000F906FF30FA060130F807003003180130EB
:100B3000F907003003180130FA07241FAF2DFF30EA
:100B4000FB06FF30FC06FF30FD060130FB070030DE
:100B500003180130FC07003003180130FD07A40121
:100B60007808FB07790803110318790A031DFC07AD
:100B70007A08031103187A0A031DFD07FD1FD22D01
:100B8000FF30FB06FF30FC06FF30FD060130FB079F
:100B9000003003180130FC07003003180130FD0756
:100BA000A401A40A7B08F0007C08F1007D08F20093
:100BB0002608A0002008F3002408A1002108F40062
:100BC0008A1575267008F8007108F9007208FA0095
:100BD000080083120313BE002B30B3003308B900A2
:100BE0000130AA07FF302A0784008A1102208A11E7
:100BF000B3003308C300C3080319F22F4308253A92
:100C000003190E2E4308B3003E08840033088313F3
:100C100080000130B3003308BE07F02DBF01C001D2
:100C2000B8012A0884008A1102208A118A156E24CC
:100C30008A11031C552E83120313BF01C0010A3011
:100C4000F0000030F100831203134008F301F307B2
:100C50003F08F201F2078A15E6248A11710883120F
:100C60000313C001C0077008BF01BF072A08840032
:100C70008A1102208A11D03EB300FF3003180030E1
:100C8000B4003308BF070318C00A3408C007013096
:100C9000B3003308AA072A0884008A1102208A11A7
:100CA0008A156E248A1103181F2E831203132A0833
:100CB00084008A1102208A112E3A031D992E0130D8
:100CC000B3003308AA07C101C2012A0884008A11AF
:100CD00002208A118A156E248A11031CA52E831204
:100CE00003134208F101F1074108F001F0070A304F
:100CF000F2000030F3008A15E6248A1183120313F0
:100D00002A0884008A1102208A117007B30000307B
:100D1000031801307107B4003308D03EC100340815
:100D20000318013EFF3EC2000130B3003308AA079A
:100D3000652E83120313C101C201A52E3816A52EFC
:100D4000C030B3003308B804BA2E01308312031345
:100D5000AA07FF302A0784008A1102208A11C300E3
:100D6000003A0319F22F6C3A03199E2E193A03190F
:100D7000A02EF02D381ECC2E3908840083130008D5
:100D8000BA00840A0008BB00840A0008BC00840A78
:100D90000008BD000430DB2E3908840083130008EE
:100DA000B300840A0008B4003308BA003408BB005A
:100DB000BC01BD010230B3003308B9074208410449
:100DC000031DEE2E3D083C043B043A04031DEE2EA9
:100DD0000130C1070318C20A0030C207C301C30AA9
:100DE00043080A3A0319282F4308B30001300310BF
:100DF000B30DFF3E031DF72E0310330D8D3E84000F
:100E00008A1102208A11B4008A1102208A11B500C9
:100E10008A1102208A11B6008A1102208A11B700B5
:100E200037083D02031D1E2F36083C02031D1E2FEE
:100E300035083B02031D1E2F34083A02031C282FDD
:100E40000130B3003308C30743080A3A031DF42EE8
:100E50004308B300B401B31BB4033408803AB500AF
:100E60004208803A3502031D372F41083302031828
:100E7000402F831203134108B3003308C3005A2FD5
:100E8000831203134308B300B401B31BB403420835
:100E9000803AB5003408803A3502031D512F3308DB
:100EA000410203185A2F831203134308C100C201E1
:100EB000C11BC203831203134308B300B401B31B65
:100EC000B4033408803AB5004008803A3502031D67
:100ED0006B2F3F08330203187B2F83120313430841
:100EE000B300B401B31BB4033308BF023408031CBE
:100EF000C003C0027F2F83120313BF01C00140084B
:100F00003F040319E32F2030B3003E088400330868
:100F1000831380000130B3003308BE07FF30BF07E2
:100F20000318C00AFF30C0077F2F0030A300003035
:100F3000A2000030A1000A30A0004108B300013037
:100F40000310B30DFF3E031DA02F0310330D8D3E84
:100F500084008A1102208A11F0008A1102208A116D
:100F6000F1008A1102208A11F2008A1102208A11EE
:100F7000F3003D08F7003C08F6003B08F5003A088E
:100F8000F4008A1517268A11730883120313A70029
:100F90007208A6007108A5007008A4008A156C25C7
:100FA0008A11831203132008303EB4003408C300B2
:100FB0004308B3003E0884003308831380000130E7
:100FC000B3003308BE07FF30C1070318C20AFF3061
:100FD000C207FF304206031DEF2FFF304106031901
:100FE000F02D952F3E0884008313800108008313A1
:100FF000A0308400B1308A11C82083018A11AB2A45
:10189600831203131F1508007208710470040319DC
:1018A60008008030F2060800831203130510851025
:1018B600061086100611861106128612080083127B
:1018C60003131F196B2C0130F0000030F1000800E3
:1018D600F001F1010800F100F0013A30710203183D
:1018E6007A2C30307102031C7A2CF001F00A700C4D
:1018F60008000830831603139B009F019F1783126D
:1019060003139F151F169F121F139F131F140630D4
:10191600F000F00B8C2C00000800803083120313BB
:10192600A9062A08F8002B08F9002C08FA0027084F
:10193600FB002808FC002908FD008A11E32478082A
:1019460083120313A7007908A8007A08A9000800E3
:10195600831603131E08F2007208F30083120313A2
:101966001E08F2007208F4001E08F601F607831638
:1019760003131E08F501F5077608F101F10775084E
:10198600F001F0070800FD01F91FD02CF809F9094C
:10199600F80A0319F90AFD01FD0A7808F00079082A
:1019A600F100F2018E30FB007B08F3007D08FC009D
:1019B6007C08F4008A1575267008F8007108F9008D
:1019C6007208FA000800F401F501701CF02C720888
:1019D600F4070318F50A7308F50701300310F20D32
:1019E600F30DFF3E031DF12C01300310F10CF00C3A
:1019F600FF3E031DF82C71087004031DE82C7508C2
:101A0600F101F1077408F001F00708008E30FC00C0
:101A16007C08FD00FF307B0503191F2D01300310E4
:101A2600FB0CFA0CF90CF80CFF3E031D122D0130CD
:101A3600FC007C08FD070D2D7808F0007908F10000
:101A46007A08F2007D08FC007C08F300F4018A1590
:101A560075267008F8007108F9007208FA00080087
:101A66007908F101F1077808F001F0070730F20074
:101A76000030F3008A15E6248A15710883120313D1
:101A8600A101A1077008A001A0077609FA0077094D
:101A9600FB00FA0A0319FB0A20087A07FC00210852
:101AA6000318210A7B07FD007C08063EA2007D087C
:101AB6000318013E003EA3002208FA007A07013E01
:101AC60084008A1102208A15F6008A110220F70086
:101AD6000800831203132308220421042004031997
:101AE600B12DA901A90AA31B862D0130A800031058
:101AF600A00DA10DA20DA30DA80B7A2D0130A800F3
:101B06002808A907762D23082702031D942D2208ED
:101B16002602031D942D21082502031D942D20085D
:101B26002402031CA42D2008A4022108031C210F53
:101B3600A5022208031C220FA6022308031C230F5A
:101B4600A70201300310A30CA20CA10CA00CFF3EAF
:101B5600031DA52D0130A902031D862D2708A3000C
:101B66002608A2002508A1002408A0000800F21FEC
:101B7600E12D0030F6000030F7008030F8007009E3
:101B8600F9007109FA007209FB00F90A0319FA0A49
:101B96000319FB0A7908F6077A0803187A0FD42D79
:101BA600D52DF7077B0803187B0FDA2DDB2DF807F9
:101BB6007608F0007708F1007808F200F51F082E85
:101BC6000030F6000030F7008030F8007309F900A5
:101BD6007409FA007509FB00F90A0319FA0A0319D0
:101BE600FB0A7908F6077A0803187A0FFB2DFC2DF5
:101BF600F7077B0803187B0F012E022EF8077608DD
:101C0600F3007708F4007808F5008030F20680309B
:101C1600F50675087202031D080074087102031D9B
:101C260008007308700208000030FC000030FB005A
:101C36000030FA000030F900730872047104700471
:101C460003196C2EFD01FD0AF31B372E0130F80037
:101C56000310F00DF10DF20DF30DF80B2B2E0130E4
:101C6600F8007808FD07272E0130F8000310F90D5B
:101C7600FA0DFB0DFC0DF80B392E73087702031DC8
:101C86004E2E72087602031D4E2E71087502031D34
:101C96004E2E70087402031C5F2E7008F402710841
:101CA600031C710FF5027208031C720FF60273080B
:101CB600031C730FF702791401300310F30CF20CB6
:101CC600F10CF00CFF3E031D602E0130FD02031DDA
:101CD600372E7C08F3007B08F2007A08F1007908B9
:101CE600F0000800730803197D2E72087104700451
:101CF600031D902E0030F0000030F1000030F2009D
:101D060008000130F5007508F30701300310F20CE6
:101D1600F10CF00CFF3E031D892EFE3072050319EF
:101D2600AB2E842E0130F5007508F3070130F0075D
:101D3600003003180130F107003003180130F207B4
:101D460001300310F20CF10CF00CFF3E031DA42E23
:101D5600FF3072050319BA2E952E0130F3020130B9
:101D66000310F00DF10DF20DFF3E031DB32EF11F12
:101D7600B02E7318C42EFF30F0057F30F105FF300A
:101D8600F2050310F30C7308F500F601F7011030A5
:101D96000310F50DF60DF70DFF3E031DCB2E75084E
:101DA600F0047608F1047708F204740803190800B1
:101DB600F217080083120313A7002708303A031D01
:101DC600EB2E0030A4000030A5008A15602708001D
:101DD600831203132708313A031DF82E0130A4009D
:101DE6000030A5008A156027080083120313270810
:101DF600323A031D052F0230A4000030A5008A15D3
:101E060060270800831203132708333A031D122F95
:101E16000330A4000030A5008A156027080083124D
:101E260003132708343A031D1F2F0430A400003083
:101E3600A5008A1560270800831203132708353A80
:101E4600031D2C2F0530A4000030A5008A1560273D
:101E56000800831203132708363A031D392F06306C
:101E6600A4000030A5008A1560270800831203131A
:101E76002708373A031D462F0730A4000030A50077
:101E86008A1560270800831203132708383A031DB2
:101E9600532F0830A4000030A5008A1560270800DB
:101EA600831203132708393A031D08000930A400DA
:101EB6000030A5008A15602708000030F6000030C3
:101EC600F700831203132508F901F9072408F8011E
:101ED600F8078A1533258A15831203130508760633
:101EE600FE39760685000130F6000030F700250839
:101EF600F901F9072408F801F8078A1533258A1528
:101F0600760883120313A600A60D05082606FD39DA
:101F1600260685000230F6000030F7002508F90194
:101F2600F9072408F801F8078A1533258A1583125C
:101F3600031306087606FE39760686000330F60099
:101F46000030F7002508F901F9072408F801F80719
:101F56008A1533258A15760883120313A600A60D63
:101F660006082606FD39260686000430F6000030EF
:101F7600F7002508F901F9072408F801F8078A157A
:101F860033258A15760883120313A600A60DA60D1F
:101F960006082606FB39260686000530F6000030C0
:101FA600F7002508F901F9072408F801F8078A154A
:101FB60033258A15760883120313A600A60DA60DEF
:101FC600A60D06082606F739260686000630F60010
:101FD6000030F7002508F901F9072408F801F80789
:101FE6008A153325760883120313A600A60E060863
:0A1FF6002606EF39260686000800D3
:04400E0061FFFCFF53
:00000001FF
